:020000040800F2
:10000000B0390020050300080D0300080F030008A5
:100010001103000813030008150300080000000086
:100020000000000000000000000000004502000881
:100030001903000800000000A10200086124000864
:100040001F0300081F0300081F0300081F03000808
:100050001F0300081F0300081F0300081F030008F8
:100060001F0300081F0300081F0300081F030008E8
:100070001F0300081F0300081F0300081F030008D8
:100080001F0300081F0300081F0300081F030008C8
:100090001F0300081F0300081F0300081F030008B8
:1000A0001F0300081F0300081F0300081F030008A8
:1000B0001F0300081F0300081F0300081F03000898
:1000C0001F0300081F0300081F0300081F03000888
:1000D0001F030008212500081F0300081F03000854
:1000E0001F0300081F0300081F0300081F03000868
:1000F0001F0300081F0300081F0300081F03000858
:100100001F0300081F0300081F0300081F03000847
:10011000C92400081F0300081F0300081F0300086C
:100120001F0300081F0300081F0300081F03000827
:1001300000F002F800F072F80AA090E8000C824487
:100140008344AAF10107DA4501D100F067F8AFF264
:10015000090EBAE80F0013F0010F18BFFB1A43F0A5
:10016000010318473C6300005C6300000A444FF041
:10017000000C10F8013B13F0070408BF10F8014B06
:100180001D1108BF10F8015B641E05D010F8016B4B
:10019000641E01F8016BF9D113F0080F1EBF10F8AF
:1001A000014BAD1C0C1B09D16D1E58BF01F801CBD2
:1001B000FAD505E014F8016B01F8016B6D1EF9D555
:1001C0009142D6D37047000000230024002500266A
:1001D000103A28BF78C1FBD8520728BF30C148BFAA
:1001E0000B607047662906F08C80642900F0E88077
:1001F000782900F02181732900F04985002070479B
:100200001FB506F074F800F078FD0400002000210E
:1002100005F054FBE0601FBD10B510BD00F070FE8E
:10022000114603B402F0FBFC03BCFFF7E9FF02F048
:1002300059FF00F08AFE03B4FFF7EEFF03BC00F0A5
:10024000CDFE00002C4B19680868B0E8F04F80F331
:100250000988BFF36F8F4FF0000080F3118870475B
:100260000000000008480068006880F308884FF02C
:10027000000080F3148862B661B6BFF34F8FBFF3FE
:100280006F8F00DF00BF00BF08ED00E0DFF80C005B
:10029000016841F470010160704700BF88ED00E023
:1002A000EFF30980BFF36F8F134B1A681EF0100F26
:1002B00008BF20ED108A20E9F04F106009B44FF01C
:1002C000100080F31188BFF34F8FBFF36F8F04F0DE
:1002D000B1FB4FF0000080F3118809BC1968086871
:1002E000B0E8F04F1EF0100F08BFB0EC108A80F39A
:1002F0000988BFF36F8F704744010020EFF305803A
:10030000704700000948804709480047FEE7FEE7BC
:10031000FEE7FEE7FEE7FEE7FEE7FEE7FEE7FEE7B5
:1003200004480549054A064B704700007924000837
:1003300031010008B0310020B0390020B035002074
:10034000B03500200FB41CB5074B06AA7B446946A4
:100350000090059800F071FC0020694600F080FCD8
:100360001CBC5DF814FB00001109000070B50C46C0
:100370000546012A05D02878800600D5EA690023C1
:1003800002E0012305E05B1C934202D2E05C0028FE
:10039000F9D1A869E618C01AA861286A1844286229
:1003A0002846AFF3008004E0D5E9012114F8010BE1
:1003B0009047B442F8D32846AFF3008070BD0000E8
:1003C0002DE9F0410646002410687529314616A52E
:1003D00010D0AFF30080002802DA404213A507E0F6
:1003E00031688A0701D512A502E0490704D511A595
:1003F000012401E0AFF3008000210A2206F1240766
:1004000009E0B0FBF2FCB0FBF2F302FB1C00303061
:1004100078541846491C0028F3D123462A46304612
:10042000BDE8F04100F09CB9000000002D00000084
:100430002B0000002000000070B504460D46214648
:100440001068AFF300802188090502D50F4A7A446D
:1004500002E00E4A7A440E32002104F1240305E042
:1004600000F00F060009965D5E54491C0028F7D184
:1004700020780023000704D5702D02D009B1022393
:1004800011322046BDE8704000F06AB9B85E000045
:100490002DE9F05F894604464FF0000ADFF874B199
:1004A000FB44C0F820A02046E1688847002874D0AB
:1004B000252806D0D4E901219047206A401C2062FB
:1004C000F1E700265F462046E16888472028054678
:1004D00007DB312D05D2781910F8200C08B106433E
:1004E000F1E7B00701D526F00406C4F81CA00027E8
:1004F000C4F818A02A2D09D0284602F01BFB38B3F7
:1005000004EB8708303DC8F8185019E059F8041B6F
:10051000204604EB87029161E1688847012F054678
:1005200018D1E069002820DA26F020061DE0D8F86E
:10053000180000EB800005EB40003038C8F81800C8
:100540002046E1688847054602F0F4FA0028EED11B
:10055000012F0AD02E2D08D12046E16888477F1C44
:100560000546022F46F02006C4DBA069002803DA06
:10057000404246F00106A061F00701D026F01006C7
:100580006C2D0BD0682D09D04C2D39D06A2D35D06B
:10059000742D35D07A2D33D016E038E0E1682F463F
:1005A00020468847B842054609D16C2F26D04FF423
:1005B0008060E168064320468847054604E06C2FCA
:1005C0001AD04FF4807006430DB3A5F141001928ED
:1005D00002D8203546F400664A4629462046266061
:1005E0004E46FFF7FFFD80B101280BD0F61D26F027
:1005F000070000F1080956E74020E4E78020D8E72B
:100600000020D6E706F104094DE7284652E7206AA4
:10061000BDE8F09F8E5E0000032A40F2308010F0AB
:10062000030C00F0158011F8013BBCF1020F62448D
:1006300098BF11F801CB00F8013B38BF11F8013B1E
:10064000A2F1040298BF00F801CB38BF00F8013BCB
:1006500011F0030300F01F83083AC0F0088051F83E
:10066000043B083A51F804CBA0E80810F5E7121D46
:100670005CBF51F8043B40F8043BAFF30080D20765
:1006800024BF11F8013B11F801CB48BF11F8012B31
:1006900024BF00F8013B00F801CB48BF00F8012B54
:1006A000704702F0FF0343EA032242EA024200F0ED
:1006B00002B84FF000020429C0F0128010F0030CC1
:1006C00000F01B80CCF1040CBCF1020F18BF00F845
:1006D000012BA8BF20F8022BA1EB0C0100F00DB8F4
:1006E0005FEAC17C24BF00F8012B00F8012B48BF52
:1006F00000F8012B70474FF0000200B513469446F6
:100700009646203922BFA0E80C50A0E80C50B1F169
:100710002001BFF4F7AF090728BFA0E80C5048BF7D
:100720000CC05DF804EB890028BF40F8042B08BF1B
:10073000704748BF20F8022B11F0804F18BF00F817
:10074000012B704770477047704710B500F0DAFA18
:10075000006810BD10B5044600F0D4FA046010BD66
:100760002DE9F0470D4699469246044600F12408CB
:100770000168880604D5E06921F01001216000E0DD
:100780000120A84201DD471B00E00027A1697A197A
:1007900002EB0900081AA0612078C00602D42046A6
:1007A000AFF30080002608E0D4E901211AF8060022
:1007B0009047206A401C761C20624E45F4DB20786E
:1007C000C0060AD52046AFF3008006E0D4E9012137
:1007D00030209047206A401C2062381EA7F1010794
:1007E000F4DC07E0D4E9012118F805009047206AFD
:1007F000401C2062281EA5F10105F3DC2046AFF362
:1008000000802078000602D50220BDE8F087012094
:10081000FBE770472DE9FF4F0C461E464FF0FF37B0
:100820008BB0D2E90001DDF860800A908A46C1F3FE
:100830000A5505B93D46002108464FF00000BAF1BF
:10084000000F00F4400005DA00EB80004FF4400197
:1008500001EA50004FEA9059B9F1010F00DDB946A5
:100860000A9850EA4A000ED044F61050A5F2FF351F
:1008700045432F14B8F1000F1ED07542291E1EDD0E
:10088000C9F100021CE0B8F1010F4FF0000001D0E7
:10089000302103E0F24305E02154401CB042FBDB71
:1008A00030460022002121540B99C1F80880C1E98B
:1008B00000200FB0BDE8F08FBD1B6D1CDEE74A467F
:1008C00000DA694206A800F0A5FA06AB93E8070033
:1008D00003AB83E8070050460A9900F086FB8DE8D9
:1008E0000700A0F500501F3800900398002D0ADD86
:1008F00042F21F014A460844002303A903906846B8
:1009000000F0EFFD09E0A0F500504A461F38002333
:1009100003A90390684600F0F9FD8DE80700000484
:10092000000C03D04FF0FF30410800E01046B8F152
:10093000000F03D00022009215461EE0751E05D45C
:1009400000F0E2F9303262556D1EF9D5B34601224E
:10095000084302D000227F1C04E02078302801D117
:1009600000227F1E002A099784D01DE0112D07DA8E
:1009700000F0CAF9303262556D1C50EA0102F5D11F
:10098000084302D00098C8B10EE00021681E05E0BF
:10099000235C625C63542254401E491C8142F7DB95
:1009A000AB46A81B401E0990002004F80B000B98D2
:1009B000099AC0F80880C0E9002B7AE711264FF0A9
:1009C000000857E72DE9F04F88460446D21D22F073
:1009D000070191B0D1E90001CDE90A0101F0CCFD98
:1009E00002460B98C00F01D02D2007E02068810738
:1009F00001D52B2002E0202101EAC000032A099042
:100A000001D0072A05DB03464146204600F0C2F923
:100A10000BE12078800601D5E06900E00620B8F1FE
:100A2000650F814606D0B8F1660F18D0B8F1670F90
:100A300070D131E00020B9F1110F009001DB1123DA
:100A400001E009F101030AAA01A90CA8FFF7E2FEDF
:100A5000DDE90C70002609F10105834647E001201D
:100A60004B4600904FF000470AAA01A90CA8FFF7D7
:100A7000D1FEDDE90DB00C995D46002610B909F1F3
:100A800001000D18B9EB050003D4C0F1FF3609F1E0
:100A90000105A5EB09002BE0B9F1010F01DA4FF0D8
:100AA00001090020B9F1110F0090484601DD112322
:100AB00000E003460AAA01A90CA8FFF7ABFEDDE996
:100AC0000C704D4600268346207800070AD4AB45BB
:100AD00000DA5D4601A8012D04DD411911F8011C61
:100AE000302907D04F4502DA17F1040F04DA01204C
:100AF00082460FE06D1EEEE7002F02DCED1B3E4448
:100B000003E0781CA84200DD7D1CB81B00F1010A3F
:100B10004FF000472078000703D4AA4501DB4FF0CF
:100B2000FF3A0021B7F1004F0DF143088DF8431053
:100B300024D002202B23002F01DA7F422D230A210B
:100B4000021EA0F1010000DC5FB197FBF1FC97FBF6
:100B5000F1F201FB1C7C17460CF1300C08F801CDBA
:100B6000EEE7A8F1010003702188090501D54521B0
:100B700000E06521A0F1010800F8011C09980FA907
:100B8000A1EB0807FF1D00B10120411901EBEA703C
:100B9000A1693844081A401EA0612078C00602D41A
:100BA0002046AFF30080099828B1D4E9012190478D
:100BB000206A401C20622078C00622D52046AFF370
:100BC00000801EE0002E04DBB34502DD01A8805D3D
:100BD00000E03020D4E901219047206A401C2062C7
:100BE000761CAAF101005FEA000A0AD100F085F83C
:100BF000C0680168405CD4E901219047206A401C2C
:100C00002062281EA5F10105DCDC07E0D4E9012102
:100C100018F8010B9047206A401C2062381EA7F18B
:100C20000107F3DC2046AFF30080032011B041E65A
:100C300001694A1C02610878704700B58FB0CDE9A0
:100C400001310021059105497944CDE90310114690
:100C50006846FFF71DFC0FB000BD0000E5FFFFFF79
:100C60000A6802F8010B0A60704710B5436913B1B6
:100C7000AFF3008001E0FFF779FB012010BD12788F
:100C800000F124010A7000224A700122EDE7116888
:100C90004FF0FF32E9E710B5203AC0F00B80B1E821
:100CA0001850203AA0E81850B1E81850A0E81850A1
:100CB000BFF4F5AF5FEA027C24BFB1E81850A0E8AA
:100CC000185044BF18C918C0BDE810405FEA827CC4
:100CD00024BF51F8043B40F8043B08BF7047D207DB
:100CE00028BF31F8023B48BF11F8012B28BF20F87C
:100CF000023B48BF00F8012B704710B500F0FCF82C
:100D0000203010BD01F0E4BE30B5B0F10A024FEA68
:100D1000900E71F100034EEA817EB0EB0E0061EBA4
:100D200091014FEA101E4EEA017E10EB0E0041EBDE
:100D300011114FEA102E4EEA016E10EB0E0041EB3E
:100D400011214FEA104E4EEA014E10EB0E0041EB1E
:100D50001141401841F100014FEAD00040EA4170D2
:100D60004FEAD10110EB80054FEA810444EA907408
:100D700044EB01046D1944EB0404521BA3414FF0F2
:100D8000000348BF0A3200D530BD401C41F10001CC
:100D900030BD00002DE9F0411F46044603260168DE
:100DA000072A01F4006004DB08B116A505E016A5CA
:100DB00003E008B115A500E015A521F010002060A2
:100DC000A069C01EA0610FB1401EA0612046AFF314
:100DD00000804FB1D4E9012138469047206A401C79
:100DE0002062C01C206206E0206AFAE7D4E90121F3
:100DF00015F8010B9047761EF8D22046AFF300801D
:100E0000BDE8F0814E414E006E616E00494E4600D5
:100E1000696E66002DE9F047814616468AB035486E
:100E200078440DC88DE80D0032487844801C03AC2E
:100E30000DC884E80D0041F69B300844372190FB33
:100E4000F1F290FBF1F5A5F1800501FB12041B3CCA
:100E500002D56442012000E00020DFF898A080461F
:100E60000027FA44AAF1BE0A0EE0E0070AD0324693
:100E7000684607EB470101230AEB810100F046FBBE
:100E80008DE8070064107F1C002CEED1194F7F44C1
:100E9000AE3F19E0E80715D007EB04100DF1180A72
:100EA00090E80E008AE80E00C068F04201D198195F
:100EB00008903246012306A903A800F027FB03ABE4
:100EC00083E807006D10641C002DE3D14FF001038F
:100ED00032466946B8F1000F03A802D000F001FBCA
:100EE00001E000F013FBC9E90001C9F808200AB0CD
:100EF000BDE8F087E0550000004870474C31002005
:100F00007546FFF7F9FFAE4605006946534620F0E7
:100F10000700854618B020B5FFF702FABDE820406B
:100F20004FF000064FF000074FF000084FF0000BA5
:100F300021F00701AC46ACE8C009ACE8C009ACE858
:100F4000C009ACE8C0098D46704710B50446AFF340
:100F500000802046BDE81040FFF76DB94FF0013C1E
:100F600050F8042B51F8043B9A4221D1A2EB0C0318
:100F7000934313EACC1317D150F8042B51F8043BD8
:100F80009A4215D1A2EB0C03934313EACC130BD175
:100F900050F8042B51F8043B9A4209D1A2EB0C0300
:100FA000934313EACC13DBD04FF00000704700BF2F
:100FB000D01A01BAB1FA81F101F0180122FA01F058
:100FC000CB40C1F12001DBB2C0B2C01A2CFA01F350
:100FD000D11A914311EAC311E6D170470149182093
:100FE000ABBEFEE72600020070475FEA400C08BF78
:100FF00091F0000F4FEA8C234FEAC12243EA51518E
:101000004FEA1C5018BF00F5F0404FEA300018BFFF
:1010100041F000415FEA6C5C00F02980BCF1FF3FC9
:1010200008BF40F080407047130C06BF12044FF019
:10103000100C4FF0000C130E04BF12020CF1080C40
:10104000130F04BF12010CF1040C930F04BF9200A4
:101050000CF1020CD30F04BF52000CF1010C11462D
:101060004FF00002A0F11F00A0EB0C00704711F040
:10107000004F08BF704731F000413FF4D5AF0B0C73
:1010800006BF09044FF0100C4FF0000C0B0E04BF0C
:1010900009020CF1080C0B0F04BF09010CF1040C40
:1010A0008B0F04BF89000CF1020CCB0F04BF490069
:1010B0000CF1010CCCF12003A0EB0C0022FA03F39D
:1010C00002FA0CF241EA030100F10100704720F03E
:1010D0007F4C80EA030023F07F47ACEB070303F566
:1010E0007C5300F0004003F1FF032DE980494FEAF3
:1010F000154B09B44FEA144325EA0B4E24EA034882
:101100000FF2042606EB132749083E785FEA320205
:1011100003FB0667C7F5000707FB06F64FEA5437DF
:101120004FEAD64606F1020607FB066CCCF1005CDE
:101130004FEA1C472CEA074C07FB06F40CFB06F5AC
:1011400004EB15464FEA961634BF00204FF00040DE
:101150004FEAD13706FB07FC4FEA1C4C0CFB0BF7A0
:10116000D21B03FB0CF761EB07010CFB0EF7B0EB96
:10117000074072EB17420CFB08F734BFA2EB0742A3
:10118000B2EB074261EB17414FEA0C444FEA91077B
:1011900006FB07FC4FEA1C4C0CFB0BF7B0EBC740FF
:1011A00072EB573203FB0CF734BFA2EBC742B2EB32
:1011B000C74261EB57310CFB0EF7B0EBC70072EB87
:1011C00057720CFB08F734BFA2EBC702B2EBC702A1
:1011D00061EB5771039F4FEA816141EA921104EB81
:1011E000CC044FEAD1374FEA826206FB07FC42EAA1
:1011F00090124FEA80604FEA1C4C0CFB0BF7D21B9D
:1012000003FB0CF761EB07010CFB0EF7B0EB07409B
:1012100072EB17420CFB08F734BFA2EB0742B2EBAC
:10122000074261EB17414FEA8C554FEA910704EBF7
:101230009C2406FB07FC4FEA1C4C0CFB0BF7B0EBA5
:10124000C74072EB573203FB0CF734BFA2EBC74227
:10125000B2EBC74261EB57310CFB0EF7B0EBC700A6
:1012600072EB57720CFB08F734BFA2EBC702B2EB6C
:10127000C70261EB577115EB4C254FEA816141EADA
:1012800092114FEA82624FEAD13742EA901206FB8E
:1012900007FC44F100044FEA80604FEA1C4C0CFB51
:1012A0000BF7D21B03FB0CF761EB07010CFB0EF7EE
:1012B000B0EB074072EB17420CFB08F734BFA2EB10
:1012C0000742B2EB074261EB174115EB1C154FEAE1
:1012D000813141EA92414FEA823242EA90424FEA3A
:1012E00080304FEA0C7644F1000448EA03434EEAAA
:1012F0000B484FF0000EB2EB080C71EB030724BF54
:10130000624639464EEB0E0E4FF0000B001852416C
:1013100049414BEB0B0BB2EB080C71EB03077BF174
:10132000000B24BF624639464EEB0E0E4FF0000B09
:101330000018524149414BEB0B0BB2EB080C71EB1F
:1013400003077BF1000B24BF624639464EEB0E0EBD
:1013500051EA020718BF46F0010616EB0E7655F16A
:10136000000254F1000103D5BDE88901BDE8008801
:10137000BDE88901BDE80048B619524141EB0101C1
:10138000A3F10103704780807F7E7D7C7B7A797832
:10139000777676757473727171706F6E6E6D6C6C3A
:1013A0006B6A6A69686867666665646463636261DC
:1013B0006160605F5F5E5E5D5D5C5C5B5B5A5A595D
:1013C00059585857575656555555545453535252C9
:1013D0005251515050504F4F4F4E4E4D4D4D4C4C21
:1013E0004C4B4B4B4A4A4A4949494848484747476A
:1013F00047464646454545444444444343434342A7
:10140000424242414141002B9C4630D477002BD0D0
:101410001CB54FEA370703B44FF010004FF010012E
:10142000BAF1000F06D0BCF1000FDCBF40F008009D
:1014300040F008014FF000000FBCBDE810400BF178
:10144000010BBBF1010F08BF5FEA170722BF12F1C2
:10145000010211F101014FF0004143F1000300F0DE
:10146000004043EA00007047F9D35708D0E746EA46
:10147000064613F1400F4FEA16461FDD13F1200F09
:10148000DFBF16430A46002120335B42BED0C3F1C2
:10149000200746EA064602FA07F74FEA164646EAEA
:1014A0000706C3F1200722FA03F201FA07F721FA2F
:1014B00003F14FF0000342EA0702A7E746EA0206FB
:1014C00046EA06464FEA164646EA0106BCBF46EA29
:1014D0000646360C4FF000034FF000024FF00001BB
:1014E00094E72DE9804C9A46934670B491E8380011
:1014F00007C831EA400C48BF34EA430C03D5FFF774
:10150000E6FDFFF780FFF0BCBDE8008C2DE9804CC4
:101510009A46934670B491E8380007C810F0804F9F
:1015200008BF13F0804F03D100F005F8FFF76BFF01
:10153000F0BCBDE8008C20F07F4780EA030023F078
:101540007F4C07EB0C03A3F57C5300F00040A3F1A4
:10155000FE0392F0000F00F0B38095F0000F00F052
:1015600077802DE901494FEA11404FEA144621EAFC
:10157000004800FB06FC24EA064708FB06F607FBCA
:1015800008F800FB07F718EB06484CEB164C4FEA3F
:10159000124B18EB07484FEA15464CEB174022EA6E
:1015A0000B4E0BFB06FC25EA06470EFB06F607FB77
:1015B0000EFE0BFB07F71EEB064E4CEB164C4FF0E6
:1015C00000061EEB074E4CEB174B18EB0B0840F1D7
:1015D000000018EB0E0B58EB000840F100008F1ACA
:1015E0004FF000013CBFC943661B14BFB5EB040CB0
:1015F00000213CBFC943F61B4FEA17444EEA8E0E4A
:1016000027EA04454FEA1C4704FB07622CEA074C13
:1016100005FB07F70CFB05F604FB0CFC16EB074675
:1016200042EB174216EB0C4642EB1C421BEB060644
:1016300058EB0202414146EA9E0601D5BDE8018908
:10164000B619524141EB0101A3F10103BDE8018943
:101650004FEA14454FEA114724EA054621EA074CB0
:1016600005FB07F406FB07F70CFB06F105FB0CFC7A
:1016700011EB074144EB17444FEA124711EB0C41C1
:1016800044EB1C4422EA074C05FB07F206FB07F774
:101690000CFB06F605FB0CFC16EB074642EB17426B
:1016A00016EB0C4642EB1C456A1854F1000148BF8A
:1016B0007047B619524141EB0101A3F10103704794
:1016C00095F0000F37D04FEA11424FEA144721EA54
:1016D000024624EA074C02FB07F106FB07F70CFB66
:1016E00006F402FB0CFC14EB074441EB17414FEAF4
:1016F000154714EB0C4441EB1C4125EA074C02FB57
:1017000007F506FB07F70CFB06F602FB0CFC16EBD5
:10171000074645EB174516EB0C4645EB1C421219E4
:1017200051F1000148BF7047B619524141EB010128
:10173000A3F1010370474FEA14454FEA114724EA29
:10174000054621EA074C05FB07F106FB07F70CFBF2
:1017500006F24FF0000605FB0CFC12EB074241EBD2
:10176000174112EB0C4251EB1C4148BF70479218D5
:1017700041EB0101A3F101037047000002460B7F1A
:10178000EBB9DFED331AC1ED001ADFED311AC1ED0F
:10179000011ADFED2F1AC1ED061ADFED2E1AC1ED89
:1017A000021ADFED2D1AC1ED031ADFED291AC1ED82
:1017B000041AF7EE001AC1ED051A01230B7701EEAA
:1017C000902AB8EE611A91ED060AF0EE400AD1EDCA
:1017D000011A91ED022A71EE821AC1ED051AD1EDBE
:1017E000051A91ED032A71EE821A91ED052AC2EED7
:1017F000212AC1ED042A91ED042AD1ED061A71EED9
:10180000612AF0EE601A42EE221AFCEEE11A11EEA5
:10181000903A98B2D1ED041AB7EE002A72EE611A2E
:1018200091ED052A61EE821AC1ED011AD1ED011A7E
:10183000C1ED051A01EE902AF8EE611AC1ED001A09
:1018400001EE900AF8EE611AC1ED061A7047000029
:101850000000000017B7D1386F12033A10B540F2FC
:101860000A6002F085FC012002F0A0FB01221102B7
:10187000194801F0B2FA00220221174801F0ADFA2E
:101880004FF4E0420221144801F035FA002001F043
:1018900087FA0021104801F0FBF9022211460E4898
:1018A00001F0D3F90723002211460B4801F03BFA5F
:1018B000072301221146084801F035FA01220221CE
:1018C000054801F0F9F901F0B5FA034801F0EBF928
:1018D000014801F0A5F910BD0028014070B504468B
:1018E00040F2026002F044FC40F2036002F040FC6F
:1018F00040F2046002F03CFC4FF4C06002F038FC9F
:1019000001210D4801F09EFB04EB44050B4E06EB54
:10191000C505EB6804EB440506EBC505AA6804EBB6
:10192000440506EBC505696804EB440556F8350027
:1019300001F02DFB70BD0000000130009000002080
:1019400070B5044640F2026002F012FC40F20360FF
:1019500002F00EFC40F2046002F00AFC4FF4C0609A
:1019600002F006FC01210D4801F06CFB04EB44057C
:101970000B4E06EBC505EB6804EB440506EBC5050D
:10198000AA6804EB440506EBC505696804EB440549
:1019900056F8350001F0FBFA70BD00000001300080
:1019A0000000002070B504460D4604EB4402094BCC
:1019B00003EBC202D16804EB440253F832002A461A
:1019C00001F0E0FA0DB9012000E0002002490855BD
:1019D00070BD0000900000200B04002010B5002016
:1019E000FFF77CFF0120FFF779FF0220FFF776FF6A
:1019F000074841780020FFF7D5FF0548C17801204E
:101A0000FFF7D0FF024841790220FFF7CBFF10BD5E
:101A1000D800002008B500200090FFF7DFFF00F09D
:101A20006FFC00F03FFC11E000F046FC00F008FC09
:101A3000BDF80000401C80B20090684600F03EF9FE
:101A4000204600F05BF9012002F04EFEECE716E0C4
:101A500000F024F90546304600F0A6F9304600F0C3
:101A600065F94DB100F0EEFA284600F00FF9044692
:101A70006178207800F0C4FB012002F035FEE7E732
:101A80000FE0204600F07AF9204600F021F92046C8
:101A900000F05EF902F03CFC00F08EFA012002F04A
:101AA00023FEEEE70FB400B587B009A8019054E01B
:101AB00008980078252849D10898401C0890089873
:101AC0000078642806D066281AD073280DD07828AC
:101AD00037D12BE0019804C824A1019002A8FEF799
:101AE00031FC02A800F0BEF82FE0019804C820A144
:101AF000019002A8FEF726FC02A800F0B3F824E04B
:101B00000198C01D20F007000190B0EC021BB0EE60
:101B1000410AF0EE610A53EC102B16A1019002A8C5
:101B2000FEF710FC02A800F09DF80EE0019804C832
:101B300012A1019002A8FEF705FC02A800F092F89D
:101B400003E00FA000F08EF800BF03E008990878CA
:101B500000F072F80898401C089008980078002857
:101B6000A6D1019007B05DF814FB000025640000C9
:101B70002573000025302E316C66000025780000AA
:101B80007072696E7466206572726F722121210A0B
:101B90000000000010B502F0A5FF0F490860012009
:101BA00008710220487102F09DFF0B4988600121F5
:101BB0000948017302F096FF0749086101210648B0
:101BC000017502F08FFF0449886101210248017705
:101BD0000221417710BD0000D801002010B500F0AF
:101BE00005F8FFF7D7FF00F015F810BD10B501207C
:101BF00003F074F806490860012003F06FF8044907
:101C00008860012003F06AF80149C86010BD000037
:101C1000F801002010B5002202210A2003F084F808
:101C200004498860002228210A2003F07DF8014938
:101C3000086110BD0802002010B504460849086874
:101C40004FF0FF3103F016FA204600F09DFB0449E7
:101C5000086800231A46194603F0FEF810BD00007C
:101C6000F801002010B5044603E02078FFF7E4FFF8
:101C7000641C20780028F8D110BD08B502468DF804
:101C800000208DF80110BDF8000008BD0146024A91
:101C90001180104670470000EC00002005480078D5
:101CA000012805D1002003490870034800887047C7
:101CB0000020FCE7060100200801002010B50446C2
:101CC0002088642803D100F0C7F90020208010BDCF
:101CD00038B504460020084A0090117F906900231F
:101CE000012202F057FF04460348007F204008B15C
:101CF00000F09EF938BD0000D801002038B5044638
:101D00000020094A0090117B90680023012202F014
:101D100041FF04460448007B204018B100F0E6F87B
:101D200000F06EF938BD0000D801002038B5044637
:101D30000020064A0090117910680023012202F069
:101D400029FF04460148007938BD0000D801002071
:101D500038B504460020084A0090117D1069002320
:101D6000012202F017FF04460348007D204008B11D
:101D700000F054F938BD0000D801002038B5044601
:101D80000020084A0090517F90690023012202F050
:101D900001FF04460348407F204008B100F06AF983
:101DA00038BD0000D801002038B504460020094A9B
:101DB0000090517910680023012202F0EBFE0446E6
:101DC00004484079204018B100F006F800F040F8CF
:101DD00038BD0000D801002030B595B00024194965
:101DE000C868611E03F046F917490869002201A975
:101DF00003F0BEF8E8B100BF05E001A8005D0BA943
:101E00000855601CC4B2282CF7DB14240FE0A4F1A1
:101E100014004006050E0BAA515D0BAB6A1C985CC2
:101E2000FFF72BFF094921F81400601CC4B2272CCE
:101E3000EDDD0449C86800231A46194603F00CF882
:101E400015B030BDF80100200802002080020020FB
:101E500030B595B000242149C868611E03F00AF925
:101E60001F490869002201A903F082F860B300BF8E
:101E70000BE001A800EB840090ED000A0BA800EB3A
:101E8000840080ED000A601CC4B20A2CF1DB00243F
:101E900018E0204604EBD071C1F347050BA800EB16
:101EA000850090ED000A0F4880ED000A40880E4939
:101EB00021F814000B4801880B4A601C22F810100E
:101EC000A01CC4B2132CE4DD0449C86800231A46E0
:101ED000194602F0C1FF15B030BD0000F801002026
:101EE00008020020F40000208002002008B51A49F2
:101EF00088680022694603F03BF858B39DF800005B
:101F0000032827DC9DF80000002823DD9DF8012030
:101F10009DF8001011A0FFF7C5FD9DF8010060B10C
:101F20009DF80020521E134B13F812109DF800204C
:101F3000521ED0B2FFF736FD0CE09DF80020521E75
:101F40000C4B03EB420251789DF80020521ED0B298
:101F5000FFF728FD08BD0000080200204E616D65F6
:101F6000203A202564202D2056616C7565203A208A
:101F700025640A00D800002070B502460B464FF6D3
:101F8000FF7000210024002500BF0FE0565C704068
:101F9000002408E000F001054010064E36F81560F8
:101FA0007040661CF4B2082CF4DB491C9942EDD356
:101FB00070BD0000066300080A48007801280FD1B0
:101FC000094801780078401C074A1070642907DD31
:101FD0000020044908701146087001200349087068
:101FE00070470000010100200201002003010020D1
:101FF00070B504460D462946204600F013FA70BD20
:1020000010B5054A117F906902F07BFD00F03CF8A5
:1020100000F07AF810BD0000D801002010B5034A86
:10202000117B906802F06DFD10BD0000D80100200A
:1020300010B5034A1179106802F063FD10BD00006D
:10204000D801002010B5034A117D106902F059FD36
:1020500010BD0000D801002010B5054A517F9069DD
:1020600002F04FFD00F010F800F04EF810BD000037
:10207000D801002010B5034A5179106802F041FDE3
:1020800010BD0000D801002010B58AB00024032440
:1020900004E0642016490855601CC4B2282CF8DB03
:1020A000134883784278017812A0FFF7FBFC0024E4
:1020B00005E00F48005D0DF80400601CC4B2282C38
:1020C000F7DB0F4988684FF0FF3102F0D3FF0D496D
:1020D000086900231A46694602F0BEFE084988686E
:1020E00000231A46194602F0B7FE0AB010BD0000E0
:1020F0000B04002025642025642025640A000000CC
:10210000F80100200802002010B594B0002400BFA0
:1021100008E09FED310A0AA800EB840080ED000A78
:10212000601CC4B20A2CF4DB2C4890ED000A8DED43
:102130000A0A2B4890ED000A8DED0B0A294890ED14
:10214000000A8DED0D0A9DED0D0ABDEEC00A10EEE0
:10215000103A9DED0B0ADFED200A20EE200ABDEEBD
:10216000C00A10EE102A9DED0A0ADFED1B0A20EED0
:10217000200ABDEEC00A10EE101A1BA0FFF792FC59
:102180009FED1C0A174880ED000A00240BE00AA806
:1021900000EB840090ED000A684600EB840080EDBF
:1021A000000A601CC4B20A2CF1DB134988684FF0A6
:1021B000FF3102F05FFF1149086900231A466946A2
:1021C00002F04AFE0C49886800231A46194602F0BC
:1021D00043FE14B010BD00000000C8420C010020F6
:1021E00010010020180100202564202564202564AA
:1021F0000A00000000000000F80100200802002092
:1022000038B504460D468DF800408DF801500A4956
:10221000C8684FF0FF3102F02DFF0849886800239D
:102220001A46694602F018FE0349C86800231A4698
:10223000194602F011FE38BDF80100200802002006
:1022400010B512480088401C10490880022110482F
:1022500000F0B4FD0E493C3108680E49FFF78EFAD4
:102260000446204600F0F0FD0B4880ED000A0849C6
:10227000403108680949FFF781FA0446204600F01A
:10228000E3FD074880ED000A10BD000014010020A6
:1022900000280140980100200C010020B801002016
:1022A0001001002010B50020FFF74AFB0120FFF7C6
:1022B00047FBFFF7D3FA10BD10B50E4A516D906C75
:1022C00000F0B7FE012810D10B480088401C0A49D5
:1022D00008800846008814280ADB00200880B7EE32
:1022E000000A064880ED000A02E00020024908804A
:1022F00010BD0000000000201C010020180100207B
:1023000010B50320FFF71CFB10BD000010B540F214
:10231000026001F02DFF40F20E6001F029FF4FF442
:10232000C06001F025FF4FF4007303221821144808
:1023300000F02DFE4FF4806303220421104800F0CA
:1023400026FE4FF416510F4802F03EF808210D48C2
:1023500002F0D0F804210B4802F0C4F840F2053135
:10236000084802F096F84FF4407001F0C3F80022DC
:102370001146252001F05CF8024802F076F810BD05
:10238000000801400038014010B5044621460548C8
:1023900002F067F800BF0721024802F06BF800283E
:1023A000F9D010BD0038014010B540F2046001F0D2
:1023B000DFFE40F2137001F0DBFE4FF4C06001F06D
:1023C000D7FE4FF4806303221821144800F0DFFD8C
:1023D0004FF4006303220421104800F0D8FD4FF4AD
:1023E00016510F4801F0F0FF08210D4802F082F865
:1023F00004210B4802F076F840F20531084802F05B
:1024000048F84FF4407001F075F80022114634206E
:1024100001F00EF8024802F028F810BD001001404B
:10242000004C004070B505460E46002404E0285DCF
:1024300000F006F8601CC4B2B442F8DB70BD0000C6
:1024400010B504462146054802F00BF800BF0721ED
:10245000024802F00FF80028F9D010BD004C0040EF
:1024600010B54FF0E020006902F034FF012801D0E0
:1024700002F01AFC10BD000010B51048006840F4CE
:1024800070000E4908600E48006840F001000C49D9
:10249000086000204860C862084600680949084092
:1024A000074908604FF41F0088600846006820F460
:1024B0008020086001F0F4FE10BD000088ED00E00F
:1024C00000100240FFFFF6FE10B50F490F4801F063
:1024D000EDFFC0B10D4801F0BFFFC4B201200C49AF
:1024E00008700C4801780078401C0A4A10700A48AD
:1024F000445410460078552802DB0020114608702D
:1025000000200649087010BD05030500004C00407E
:1025100001010020000100200C0300200201002026
:1025200010B51049104801F0C1FFD0B10E4801F0BC
:1025300093FFC4B20A2C09D00C480D4909884454B1
:102540000B480088401C0A4908800AE0002107481F
:10255000074A128881540120064908700020044966
:10256000088010BD05030500003801401C02002052
:10257000F8000020FA00002003B401984100009800
:1025800050EAC12018BF04204A0D18BF40F00100D6
:1025900040F2FF72B2EB515F08BF40F00200012829
:1025A00008BF052002B0704770B5D94B00242DED4F
:1025B000020B2DED108BDDE91010984205DA20F0AA
:1025C00000429A4201D809D141B19DED100BBDECFA
:1025D000108B02B0BDE8704000F05EBAB0F5801F0D
:1025E00026DA11430BD0002813DA0120FEF7B2F8E7
:1025F000BDEC108B02B0BDE8704000F059BA02206B
:10260000FEF7A8F800F030FA51EC100B03F06CF96B
:102610009EE06FF035049FEDC00B53EC102B9DED49
:10262000100B51EC100B03F0FDFBCDE91001084637
:1026300004EB2051C0F31304B948A1F2FF31204448
:1026400000F4801080F07F6282F04052224301EB60
:1026500020559FEDB50B119253EC102B9DED100BF7
:1026600051EC100B03F0E8FC41EC180BA01CC0F37C
:1026700013009FEDAFDB9FEDB0EBB14E7E4403281E
:102680006CD296ED000B51EC180B53EC102B03F0B1
:1026900075FB1DD1002D01BF96ED000BBDEC108B1D
:1026A00002B070BD284603F0A5FB41EC180B53ECBB
:1026B0001D2B03F0B7FB41EC190B53EC1E2B51EC17
:1026C000180B03F0AFFB53EC192B03F04BF93FE071
:1026D0009FED9D0B51EC180B53EC102B03F0A2FB5C
:1026E0009FED9B1B53EC112B03F09AFC41EC190B53
:1026F00053EC182B51EC180B03F094FB53EC192BF3
:1027000003F090FB41EC190B002D04BF53EC192B87
:1027100051EC180B1AD0284603F06CFB41EC1A0B55
:1027200053EC1D2B03F07EFB53EC192B03F078FCCC
:1027300053EC182B03F080FC41EC180B53EC1E2BD0
:1027400051EC1A0B03F06EFB53EC182B03F074FCE6
:10275000BDEC108B02B041EC100B70BD9FED7E0BF9
:1027600051EC180B53EC102B03F0FCF841EC100B60
:1027700051EC180B53EC102B03F0A8F941EC190B9A
:10278000284603F037FB41EC1B0B53EC192B51ECA3
:10279000190B03F047FB41EC1A0B714853EC1A2B51
:1027A000261851EC1A0B03F03DFB41EC1F0B6D4852
:1027B000C4F1510404F5D724B0EE4F0AF0EE6F0ACD
:1027C0000321784400F0D2F853EC1F2B51EC100B8E
:1027D00003F028FB41EC1C0B6348B0EE4F0AF0EE0F
:1027E0006F0A0421784400F0C1F853EC1A2B51EC25
:1027F000100B03F017FB344353EC1C2B03F0B2F81F
:1028000041EC1C0B002C4CDD9FED510B51EC180BD7
:1028100053EC102B03F006FB53EC182B03F002FBD8
:1028200041EC1A0B55B353EC1D2B51EC1B0B03F071
:10283000F9FA41EC1D0B53EC1C2B51EC1A0B03F075
:1028400091F853EC192B03F0EDFA53EC1D2B03F028
:1028500089F853EC1A2B03F0E3FB53EC182B03F02D
:10286000EBFB41EC180B53EC1E2B51EC1B0B03F054
:10287000D9FA53EC182B03F0DFFB69E753EC1C2B60
:1028800051EC1A0B03F06EF853EC192B03F0CAFA53
:1028900053EC1A2B03F0C4FB53EC182B03F0C0FBD2
:1028A00056E735B353EC1D2B51EC1B0B03F0BAFA72
:1028B00041EC1A0B53EC1C2B51EC180B03F0BCFB36
:1028C00053EC192B03F0AEFA53EC1A2B03F0B4FBC4
:1028D00053EC182B03F0B0FB41EC180B53EC1E2B00
:1028E00051EC1B0B03F09EFA53EC182B03F0A4FBE6
:1028F0002EE753EC1C2B51EC180B03F09DFB53EC13
:10290000192B03F08FFA53EC182B03F089FB1FE708
:102910000000F07F000000000000000000005043B5
:10292000645F090000000000000000000000F03FAC
:10293000763C7935EF39EA3D0000E0FE422EE63F75
:10294000003D000000000000555555555555D53F38
:10295000000000000000E03F000000000000004018
:1029600086EBF9FF823B0000783B000070B504461F
:102970002DED028B4D1E00EBC500B0EE408AF0EE4F
:10298000608A90ED000B35F0060017D053EC182B41
:1029900051EC100B03F046FA41EC100B6D1E04EBEA
:1029A000C50090ED001B51EC100B53EC112B02F005
:1029B000D9FF41EC100B35F00600E7D1022D36D0DF
:1029C000042D1CD0062D1CBFBDEC028B70BD53EC3A
:1029D000182B51EC100B03F025FA94ED0A1B53EC65
:1029E000112B02F0BFFF53EC182B03F01BFA94EDF0
:1029F000081B53EC112B02F0B5FF41EC100B53EC0C
:102A0000182B51EC100B03F00DFA94ED061B53EC50
:102A1000112B02F0A7FF53EC182B03F003FA94EDEF
:102A2000040B53EC102B02F09DFF41EC100B53EC08
:102A3000182B51EC100B03F0F5F994ED021B53EC3D
:102A4000112B02F08FFF53EC182B03F0EBF994EDF0
:102A5000001B53EC112B02F085FFBDEC028B41EC07
:102A6000100B70BD000000009FED070B10B553EC7C
:102A7000102B9FED070B51EC100B03F027F841ECE6
:102A8000100B10BD0000000000000000000000005E
:102A9000000000000000F03F10B553EC102B51EC8B
:102AA000100B02F05FFF41EC100B10BD00000000A6
:102AB0009FED050B10B553EC102B51EC100B03F0F0
:102AC00005F841EC100B10BD0000000000000000F4
:102AD00070B500F019FD08B9134870BD02F0F4FBA1
:102AE0000546002418E0114850F8240040B90F486A
:102AF00040F8245004EB44000D4901EB4010ECE792
:102B00000A4850F82400A84205D104EB44000849C3
:102B100001EB4010E1E7641C042CE4D304EB440017
:102B2000034901EB4010D8E7B4050020140600204B
:102B30003404002030380A2801D2012070470020D8
:102B4000704710B5044600F0DFFC38B100F0C2FA5F
:102B500020B14FF0FF31206802F08CFA10BD000068
:102B600070B50546286801F08FFD00240BE0084988
:102B700051F824102868884204D10020044941F803
:102B8000240002E0641C052CF1D300BF70BD0000DE
:102B9000B407002070B5044600202060002514E032
:102BA000154850F8250078B905EB8500134A02EB6B
:102BB0000011012002F0A3F80F4941F82500084652
:102BC00050F82500206002E06D1C052DE8D300BF01
:102BD000206830B900F098FC18B1012002F07EF8AE
:102BE0002060002080F3118800BF206808B9002011
:102BF00070BD0120FCE70000B4070020240600207F
:102C000010B5044600F080FC40B100F063FA28B132
:102C100000231A461946206802F01EF910BD7047BD
:102C2000816841F00801816000BF816801F00801FE
:102C30000029FAD1816841F00401816000BF8168F8
:102C400001F004010029FAD1704730B5012902D002
:102C500002291AD10CE0C36A23F47003C362C36A69
:102C6000541E4FF4700505EA04542343C3620DE07B
:102C7000836B23F440138363836B541E4FF440151E
:102C800005EA04542343836300E000BF00BF30BD66
:102C900021B1826842F40062826003E0826822F41B
:102CA000006282607047816801F0010119B9816892
:102CB00041F001018160704772B101F001031BB165
:102CC000836843F48013836001F0020393B1836847
:102CD00043F4004383600DE001F001031BB18368FE
:102CE00023F48013836001F002031BB1836823F493
:102CF000004383607047012902D0022910D107E008
:102D0000836823F46023836083681343836008E04F
:102D1000836823F4E043836083681343836000E0A7
:102D200000BF00BF7047F0B50C46876BC7F3015674
:102D3000856B371B07EB8707C7F10F0C1F2707FAB7
:102D40000CF7BD43371B07EB8707C7F10F0702FAE4
:102D500007F73D4385630A2A0DD2016902EB420C55
:102D6000072707FA0CF7B94302EB420703FA07F704
:102D70003943016112E0122A10D2C168A2F10A0798
:102D800007EB470C072707FA0CF7B943A2F10A072C
:102D900007EB470703FA07F73943C160F0BD0000AE
:102DA0000549096821F47021034A11601146096838
:102DB00001431160704700000424014001F001024A
:102DC0001AB1826842F48002826001F002021AB1F4
:102DD000826842F4001282607047AAB101F48073E5
:102DE0001BB1436843F48073436001F480631BB1FB
:102DF000436843F48063436001F00203CBB183680E
:102E000043F00203836014E001F480731BB1436854
:102E100023F48073436001F480631BB1436823F49F
:102E20008063436001F002031BB1836823F0020357
:102E3000836070470348006840F40000014908605F
:102E4000704700000824014030B52DED108B89B08B
:102E500004469FED3A0AB0EE408A9FED390AF0EE43
:102E6000408A9FED380AB0EE409A9FED370AB0EEE7
:102E700040FA00EE104AB8EE400A20EE0F0ADFEDED
:102E8000330A80EE201AF0EE419A29EE890A7FEE8D
:102E9000690A80EE201AF0EE41FA18EE100A03F0EB
:102EA000B5F941EC1D0B8FEE890A10EE105A284639
:102EB00003F0ACF9CDE900019DED000BFFF774FBC9
:102EC0008DED020B18EE900A03F0A0F941EC1E0BF9
:102ED0009DED020B53EC102B02F0A4FF53EC1D2BC5
:102EE000CDE904019DED040B51EC100B02F03AFD0D
:102EF00041EC1C0B28EE880A10EE101A084603F06D
:102F000085F953EC1C2BCDE906019DED060B51EC28
:102F1000100B02F0DBFD41EC1B0B9FED0D0B53EC96
:102F2000102B03F089F841EC1A0B02F0E9FC089031
:102F30009DED080A09B0BDEC108B30BD00E0764570
:102F40003313954300401C463333534000F07F4514
:102F5000666666666612714008B5014600200090FC
:102F60000AE0A1F1080001B29DF80000401CC0B2C7
:102F70000090002900DA01E00029F2DA00BF9DF894
:102F8000000008BD0AB1016100E041617047F0B581
:102F90000C4616460025002204F00F0504F0100729
:102FA00047B1042E05D145F00305C76B1F43C76326
:102FB00000E03543002118E001278F401F4097B102
:102FC00002684FEA810C0F2707FA0CF7BA438F000B
:102FD00005FA07F73A43282C01D1436102E0482C57
:102FE00000D1036102604F1CB9B20829E4D3082163
:102FF0001CE001278F401F40B7B14268A1F10807CC
:103000004FEA870C0F2707FA0CF7BA43A1F108071C
:10301000BF0005FA07F73A43282C01D1436102E0CB
:10302000482C00D1036142604F1CB9B21029E0D393
:10303000F0BD02469068084008B1012070470020AA
:10304000FCE70000F0B50A4600230024002100251B
:1030500000F00046B6F1004F02D11D4EF16901E0CB
:103060001B4E7168C0F3034583B200F44016B6F5F9
:10307000401F08D121F07061154E766826F0706609
:10308000134F7E6012E000F48016B6F5801F06D163
:10309000032606FA05F4A14341F0706106E0460DEF
:1030A000360103FA06F6B14341F0706122B1460DD4
:1030B000360103FA06F6314300F00046B6F1004F40
:1030C00002D1034EF16101E0014E7160F0BD0000DC
:1030D0000000014000BFEFF3058008B901207047F0
:1030E0000020FCE71CB5FEF779FDFFF75DF9FFF75F
:1030F0000DF90020012103468022CDE900100EA128
:10310000104802F07FF80020012103468022CDE91B
:1031100000100DA10F4802F075F8002001210346B0
:103120008022CDE900100CA1124802F06BF801F0EA
:103130002BFC00201CBD00005461736B205379737D
:1031400074656D00811A00085461736B2047504903
:103150004F000000151A00085461736B204D657311
:1031600073616765205472616E736D697373696F03
:103170006E0000004F1A00082DE9F04F99B0064686
:1031800000240027F078B17840EA012B707931797A
:1031900040EA01290FFA89F0FFF7DEFE8246307817
:1031A0002549087070784870084680F802A000250C
:1031B0001AE0E91705EB5171C910A5EBC10119B966
:1031C00015B1781CC7B200241DF807000BEB0501F0
:1031D0001A4A12F81110A1400843C0B20DF80700B6
:1031E000601CC4B2681CC5B24D45E2DB002406E099
:1031F0001DF80410E01C104A1154601CC4B2781C65
:103200008442F5DBE01CC1B20B48FEF7B5FE8046F8
:10321000E01C094A02F800804FEA2821201D1154C1
:10322000601DC1B21046FEF7E3FEF9006846FDF7E7
:1032300062FA19B0BDE8F08FB6030020D00200207A
:103240002DE9F04705468A460027B9460024E8786C
:10325000A97840EA01296879297940EA0124287887
:103260001E490870687848706006000E8870002655
:1032700013E009EB07001A4931F810000112F01CA5
:10328000164A115409EB0700154911F81010301DAA
:103290001154781CC7B2B01CC6B2B6EB440FE8DBC1
:1032A000032000EB4400C1B20C48FEF765FE8046E7
:1032B0004FEA2820042101EB4401084A505403211D
:1032C00001EB440102F80180052000EB4400C1B28B
:1032D0001046FEF78DFEBDE8F0870000B603002023
:1032E000800200202DE9F04104460D46E078A178E7
:1032F00040EA01266079217940EA0127F8B20449C1
:1033000021F8160029462046FEF772FEBDE8F0813E
:10331000D00200202DE9F04104460D46E078A17866
:1033200040EA01266079217940EA0127044820F823
:10333000167029462046FEF75BFEBDE8F0810000CE
:10334000800200202DE9F04705468A4668792979F0
:1033500040EA0129002719E008F10700285C012153
:10336000A1400840144921F81700601CC4B2E117BD
:1033700004EB5171C910A4EBC10129B924B108F1C2
:10338000010000F0FF080024781CC7B24F45E3DBC2
:103390000A4829680160A98881800621FEF7ECFDB2
:1033A000064606498E713012C87108210348FEF79F
:1033B0001FFEBDE8F0870000D0020020B603002009
:1033C0002DE9F04704468A460027E078A17840EAD4
:1033D00001286079217940EA012900260FE007F1F0
:1033E0000800215CF81D205C41EA002008EB060182
:1033F0000D4A22F81100B81CC7B2701CC6B24E4567
:10340000EDDB0A4821680160A18881800621FEF772
:10341000B3FD054605498D712812C871082103487E
:10342000FEF7E6FDBDE8F08780020020B60300202D
:103430002DE9F04103460D46164600240027A0461C
:103440002A48006800F4E060B0F5E06F03D100BFE7
:103450004FF0040830E02548006800F4E060B0F563
:10346000C06F03D101274FF0030825E01F48006813
:1034700000F4E060B0F5A06F02D10227B8461BE06F
:103480001A48006800F4E060B0F5806F03D10327AC
:103490004FF0010810E01548006800F4E060B0F556
:1034A000407F03D104274FF0000805E04FF4A060EF
:1034B00000F020F80227B846C7F1040005FA00F42E
:1034C000C8F104010F20C8403040044324010848DB
:1034D000C45403F01F01012088405911890001F1F3
:1034E000E021C1F80001BDE8F08100000CED00E032
:1034F00000E400E002490143024A11607047000005
:103500000000FA050CED00E010B501F0E3FE022822
:1035100001D1012010BD0020FCE700002DE9F041A1
:1035200005460E462048076820480068001D00F048
:10353000E9FF681CD8B9D6B11D4948681B4909681C
:1035400088601A4982680968CA6018490968091DB3
:103550008268516015490968091D8160144A134940
:1035600009684A6111460968491C11601AE07C1912
:103570000E4800684460BC4207D20C480168091D2F
:103580000C48006801F009F80CE008480168091DC2
:103590000948006801F001F808480068844201D237
:1035A00006480460BDE8F081580100204401002075
:1035B000703000204C0100204801002074010020E0
:1035C00010B5044601F004F830480068401C2F494B
:1035D00008602F48006840B92D480460084600681C
:1035E00001280DD100F0ECF90AE02A48006838B94A
:1035F00027480068C06AE16A884201D8244804600C
:1036000025480068401C244908600846006860643A
:103610002249E06A0968884202D92049E06A0860C4
:10362000E16A01EB81011E4A02EB81014868A0605A
:103630008268E260211D826851608160E16A01EB6D
:103640008101174A02EB81026261E16A01EB8101AB
:10365000134A52F82110491CE26A02EB8202104B15
:1036600043F8221000F0C6FF0A48006868B1084815
:103670000068C06AE16A884207D24FF08050094969
:103680000860BFF34F8FBFF36F8F10BD5401002050
:103690004401002060010020700100205C01002036
:1036A000C02B002004ED00E008B500F091FF0E48AB
:1036B0000068A8B90D4800F060FF0D4800F05DFFFC
:1036C0000A480C4908600A480B49086000200B4B67
:1036D0000B4A10210090052001F04FFB02490860C1
:1036E00000F088FF08BD00008C010020843000201D
:1036F000983000208401002088010020AC30002098
:10370000FC30002010B516E000F062FF0C48C068E5
:10371000C468201D00F0F6FE0A480068401E0949F2
:10372000086009480068401E0749086000F062FF11
:10373000204600F05FF8044800680028E4D110BD7E
:103740005C300020540100205001002070B5044678
:103750000D46206C70B1216CE0680144E160D4E951
:103760000210884201D32168E1602846226CE1689A
:10377000FCF752FF70BD2DE9F04104460F46154697
:103780004FF00008A66B206C48B9206800282CD1A7
:10379000A06801F07DFE80460020A06025E07DB994
:1037A0003946226C6068FCF737FF216C606808447A
:1037B0006060D4E90101884217D32068606014E09A
:1037C0003946226CE068FCF727FF216CE068411A5B
:1037D000E1602168E068884203D2216CA068411A48
:1037E000E160022D01D106B1761E701CA063404637
:1037F000BDE8F08110B5044694F8590030B9206B4B
:1038000000F008FF204600F005FF06E094F859009C
:10381000012802D1204600F0FDFE10BD01464A6A93
:1038200022B10A6B1268C2F1380000E00020704734
:103830000146084A126812680AB9012200E0002213
:103840000A600A6822B9034A1268D268106800E068
:10385000002070478401002030B54FF40053154814
:1038600000F007042CB1C01D20F00700114C041B10
:103870001B1B0246104C226000240F4D6C60D018B8
:10388000083820F007000D4C206000240B4D2D68F7
:103890006C600A4D2D682C601146441A4C60074C30
:1038A00024680C60064D4C682C60064D4C682C60FA
:1038B00030BD0000C00B0020240100202C0100209E
:1038C000340100203001002000BFFFF71BFF064835
:1038D00000680128F9D94FF0805004490860BFF30F
:1038E0004F8FBFF36F8FF0E7C02B002004ED00E097
:1038F00010B5044654B10020A06020600021E160B2
:1039000000231A461946204601F0A6FA10BD2DE9FB
:10391000F04106460D4617469846069C0DB92460B0
:1039200000E02760E66325640121204601F044FAA7
:1039300084F84C80BDE8F0812DE9F05F81460E46A9
:1039400090469A460A9F0C9C4FEA8801A522206B5C
:10395000FCF7A7FEA8F10100216B01EB800B2BF017
:10396000070B7EB1002507E0715D04F1340041557D
:10397000705D00B902E06D1C102DF5D300BF002171
:1039800043200155382F00D33727E762E764201D15
:1039900000F000FE04F1180000F0FCFD2461C7F106
:1039A0003800A061646252464946584600F0E8FA81
:1039B00020600B9808B10B980460BDE8F09F0000F0
:1039C00010B5002407E004EB84010F4A02EB8100EC
:1039D00000F0D3FD641C382CF5D30C4800F0CDFD6D
:1039E0000B4800F0CAFD0B4800F0C7FD0A4800F084
:1039F000C4FD0A4800F0C1FD0448094908600448B4
:103A00000849086010BD0000C02B002020300020B5
:103A100034300020483000205C300020703000201E
:103A2000480100204C01002010B50146164800E076
:103A3000006803688B42FBD30246436813448B4201
:103A400004D143684C682344436001460A464B68EE
:103A500013440468A34211D10C4C03682468A342A8
:103A600008D04B680468646823444B6003681B6893
:103A70000B6005E0054B1B680B6001E003680B6001
:103A8000884200D0016010BD240100202C010020DC
:103A90002DE9F04104460D4616461F464FF000083A
:103AA00065602461B5420CD8F01BA169884202D33D
:103AB0004FF0010811E0211D0948006800F06DFD7C
:103AC0000BE0BE4204D2BD4202D34FF0010804E035
:103AD000211D0448006800F060FD4046BDE8F0810B
:103AE000880100208401002070B5054600F070FDBB
:103AF000A86B08B9012400E0002400F07BFD2046FB
:103B000070BD70B5054600F063FDA86BE96B884297
:103B100001D1012400E0002400F06CFD204670BDBE
:103B200070B505460E460E480068C068C468201D82
:103B300000F0E8FC94F8280000F0040028B13246B8
:103B40002946204600F0D0F805E094F8280000F05F
:103B5000FE0084F828002046216A884770BD0000D6
:103B60008401002070B586B077E00298002805DA5D
:103B700003AED6E90020B168904700BF0298002844
:103B80006BDB049C606908B9012000E0002010B9DB
:103B9000201D00F0B7FC01A800F0D2F805460298FD
:103BA0000A2858D2DFE800F05705072E36470608E6
:103BB0002F3700BF00BF00BF94F8280040F001007D
:103BC00084F828000398A269811803462A462046F3
:103BD000FFF75EFFA8B194F8280000F0040038B1A8
:103BE0000398A26981182A46204600F07DF805E076
:103BF00094F8280000F0FE0084F828002046216A8E
:103C0000884729E000BF94F8280000F0FE0084F8FF
:103C1000280021E000BF94F8280040F0010084F85B
:103C200028000398A061A06941192B462A46204626
:103C3000FFF72EFF10E094F8280000F0020018B9FA
:103C4000204600F0E7FC05E094F8280000F0FE00B4
:103C500084F8280000E000BF00BF002202A9044849
:103C6000006801F085F900287FF47FAF06B070BDD1
:103C70008C010020F8B505460C4600F0D3FE6846DE
:103C800000F05EF80646009820BB44B9B54206D85D
:103C900001F038FD31462846FFF742FF1CE03CB1F9
:103CA0000E480068006808B9012000E000200446C2
:103CB000A91B22460A48006800F0F0FC01F022FD32
:103CC00050B94FF0805007490860BFF34F8FBFF3E2
:103CD0006F8F01E001F016FDF8BD000088010020A3
:103CE0008C01002004ED00E070B504460D46164638
:103CF00004E0A06905442046216A8847A06941196B
:103D00002B4632462046FFF7C3FE0028F1D170BD96
:103D100009480068006808B9012000E0002020B1CF
:103D20004FF0FF300549086005E003480068C068AF
:103D300000680249086070474801002074010020B3
:103D400070B5044601F0D6FA05460748006885427A
:103D500004D200F00BF80120206001E00020206078
:103D600001480560284670BD9401002070B508E048
:103D70000D480068C06804684FF0FF312046FFF727
:103D8000CFFE09480068006808B9012000E0002063
:103D90000028EDD00448056804480068024908601E
:103DA0000248056070BD00008401002088010020E9
:103DB00000BF102080F31188BFF34F8FBFF36F8FC8
:103DC00000BF00BFFEE710B50346002022B903EA9A
:103DD000010434B1012004E003EA01048C4200D163
:103DE000012010BD08B500BF6846FFF721FD04465D
:103DF00020460099FFF73EFFFFF7B4FEF4E770B5E9
:103E0000044600F0E5FB94F9455010E0606A08B9FB
:103E1000012000E0002038B904F1240001F0EEFB9D
:103E200018B100F087FC00E003E0681E45B2002DE9
:103E3000ECDC00BFFF2084F8450000F0DBFB00F065
:103E4000C7FB94F9445010E0206908B9012000E054
:103E5000002048B904F1100001F0D0FB08B100F0D7
:103E600069FC681E45B200E001E0002DECDC00BFFB
:103E7000FF2084F8440000F0BDFB70BD2DE9F04741
:103E800005464FF0000900F0CDFD3048006808B944
:103E9000FFF7E2FC75B105F00700C0F11008C8F1AA
:103EA000FF30A84201D2012000E0002008B94544BB
:103EB00000E00025012000EBE570002841D0002D36
:103EC0003FD02348006885423BD8224E30460468E4
:103ED00001E0264624686068A84202D220680028D3
:103EE000F7D11A48006884422BD0306800F10809E5
:103EF000206830606068401B102807D96719606827
:103F0000401B786065603846FFF78EFD1049606899
:103F10000968081A0E490860084600680E490968D1
:103F2000884203D20A4800680B490860606840F084
:103F3000004060600020206008480068401C07497D
:103F4000086001F0DFFB4846BDE8F0872C01002047
:103F5000300100202401002034010020380100201D
:103F60000648006830B10549096801F15000096D43
:103F7000491C0160014800687047000044010020AE
:103F8000001F4FF080730360001F21F001030360E6
:103F9000001F054B036014380260001F6FF002031E
:103FA0000360203870470000B13D0008184B596885
:103FB000184B1940164BDA6A22F000520C2820D216
:103FC000DFE800F0060708091F0C1F0D151617186B
:103FD00000BF00BF00BF41EA803113E000BF20F006
:103FE00004004FF0805343EA803319430AE000BFD6
:103FF00000BF00BF20F00C0041EA803142F00052C7
:1040000000E000BF00BF024B5960DA627047000059
:1040100000100240FF3FFFEF2DE9F04F8CB0074644
:1040200000200A904AA090E8004CC068CDE905BE87
:10403000CDF810A007900FF21C1ADAE9000ACDE9BA
:10404000020A0FF2101ADAE9000ACDE9000A444820
:104050004068C0F381000B900B9820B1012804D078
:1040600002283FD103E03F4A3EE03E4A3CE03C4864
:10407000406800F4803CBCF5803F12D13848C06AEB
:1040800000F08048B8F1000F01D1364C00E0364C0A
:104090003348406800F40039B9F5003F02D1334C91
:1040A00000E0324C2E484068C0F383412C48406801
:1040B00000F0006008B141F010012948406800F0AC
:1040C000804008B141F020010F2901D2891C06E08F
:1040D0000F2903D33E2901D8491C00E03F2104FBEE
:1040E00001F201E01F4A00BF00BF1D484068C0F355
:1040F000031504A8465D22FA06F319484068C0F388
:10410000022502A8465D23FA06F00990144840688B
:10411000C0F3C2251DF8056023FA06F0089037B1F8
:10412000012F06D0022F06D0032F0AD106E00A92F3
:1041300008E00A9306E009980A9003E008980A90BC
:1041400000E000BF00BF0A980CB0BDE8F08F00008F
:104150000000000000000000010203040607080937
:104160000010024000127A00006CDC0200093D00E1
:10417000064A02EB9011096800F01F0301229A40E1
:104180001143024B03EB9012116070470010024084
:10419000002000213E4A126842F480323C4B1A60F3
:1041A00000BF401C3A4A126802F4003111B9B0F560
:1041B000006FF6D1364A126802F400320AB900BF25
:1041C000FEE7334AD26942F08052314BDA61314A1C
:1041D000126842F440422F4B1A602D4A52682C4B11
:1041E0005A601A4652685A601A46526842F480620F
:1041F0005A601A46526822F440325A601A4652688F
:1042000042F440325A601A465268234B1A40204BFF
:104210005A601A465268214B1A431D4B5A601A467F
:10422000126842F080721A6000BF194A126802F0E8
:104230000072002AF9D0174A126842F48032154BF6
:104240001A6000BF134A526802F48032002AF9D083
:10425000104A126842F400320E4B1A6000BF0D4A39
:10426000526802F40032002AF9D0094A526822F05A
:104270000302074B5A601A46526842F002025A6023
:1042800000BF034A526802F00802002AF9D07047C2
:104290000010024000700040FFFFC3B70000340868
:1042A00010B5FFF775FF10BD70B504460D46607878
:1042B000062816D006DC012809D003280CD00528D2
:1042C00023D113E00F2816D010281ED118E029465C
:1042D0002046FEF751FF18E029462046FEF7B0FFC2
:1042E00013E029462046FFF715F80EE02946204640
:1042F000FEF7F8FF09E029462046FFF723F804E01F
:1043000029462046FFF75CF800BF00BF70BD0000E3
:1043100070B525480078012844D100202249087052
:1043200022480278521C22492248FCF775F91F489E
:10433000047800201D49087055211D48FCF7B9F983
:1043400055211D48FCF7B5F9A01EC1B21948FDF76B
:1043500013FE0546A01E1749095C601E154A105C35
:1043600041EA00201549088008460188A94207D182
:1043700010460078302803D121461046FFF794FFFD
:104380000C48407806280DD10A480078302809D119
:10439000084A51791079FDF770FC0949088001201D
:1043A0000849087070BD00000301002000010020D2
:1043B0000C03002061030020B6030020040100204C
:1043C00008010020060100202DE9F04704460D46B3
:1043D0000027B846B94600261D49601A8C421CD0F9
:1043E00006DC1C48204470B1B0F5806F1FD10FE08F
:1043F000B0F5806F16D0B0F56C4F18D10320FFF7E1
:104400000BFE074614E00220FFF706FE07460FE00A
:104410000220FFF701FE07460AE00220FFF7FCFD3D
:10442000074605E00220FFF7F7FD074600E000BF62
:1044300000BF07EB5500B0FBF5F64FF6F07006EA4B
:10444000000806F00F0948EA0900A060BDE8F087FF
:10445000004C004000BCFFBF01464868C0F30800A4
:104460007047C1F3080242607047C16841F40051CF
:10447000C160704710B5024602EB9110006801F070
:104480001F040123A340184008B1012010BD0020E3
:10449000FCE710B5C1F38912825801F01F04012313
:1044A000A3401A43C1F38913C25010BD70B5024630
:1044B00000230024C1F38910105801F01F060125C4
:1044C000B54000EA050302EB91500068C1F30446D1
:1044D0000125B54000EA050414B10BB1012070BDFF
:1044E0000020FCE70A460021C16821F004011143C5
:1044F000C16070470A460021C16821F008011143DC
:10450000C160704701460A69D1E901309860D1E97C
:10451000010358605068884201D1886850600020CB
:1045200008611068401E10601068704705490968EE
:10453000886904490968C96AC1F13801014A1268E9
:104540009161704744010020034B0360034B0B60F3
:104550008023136070470000C80700202408002053
:10456000034B0360034B0B60502313607047000044
:10457000240A0020800A0020704700F108014160F1
:104580004FF0FF31816000F10801C160016100213D
:104590000160704700210161704710B502460B6849
:1045A0005C1C0CB9106907E002F1080000E04068EB
:1045B000446824689C42FAD944684C604C68A16005
:1045C000886041600A611468641C146010BD0000BA
:1045D00000BF102080F31188BFF34F8FBFF36F8FA0
:1045E00000BF03480068401C014908607047000094
:1045F0004001002006480068401E05490860084642
:10460000006820B9002080F3118800BF00BF704708
:104610004001002070B506463546E6B1083D2C46FF
:104620006068C00FB8B12068A8B9606820F0004089
:10463000606000F0F7F908496068096808440649B5
:1046400008602046FFF7F0F904480068401C034961
:10465000086001F057F870BD300100203C010020D7
:1046600000204FF0E02108618861064800684FF49F
:104670007A71B0FBF1F0401E4FF0E0214861072055
:10468000086170472001002070B50446254695F862
:10469000460010B92846FFF7BDFF70BD2DE9F04177
:1046A00005460E4617462C46FFF792FF94F9440044
:1046B000401C10B9002084F8440094F94500401CC7
:1046C00010B9002084F84500FFF794FFA06B28B9CB
:1046D0003A46314604F1240000F042F82046FFF744
:1046E0008EFBBDE8F081000070B50446002544B1A2
:1046F00000F098F900212046FEF710FF01F002F8C3
:1047000005463DB94FF0805003490860BFF34F8F15
:10471000BFF36F8F70BD000004ED00E0034909682E
:104720000160034909684160704700006C01002086
:1047300058010020012001490860704768010020ED
:1047400070B505460C460548016818312846FFF744
:1047500024FF01212046FEF7E1FE70BD4401002048
:1047600070B504460E46154660680F490968C86171
:104770000D49826809680A620B4909681831826824
:1047800051600949096818318160074909688C62DC
:104790002168491C21600DB14FF0FF362946304693
:1047A000FEF7BCFE70BD00004401002070B5044659
:1047B0000D46164645F000400F490968886160685B
:1047C0000D490968C8610C49826809680A620A498A
:1047D0000968183182685160074909681831816099
:1047E000054909688C622168491C21600121304615
:1047F000FEF794FE70BD0000440100202DE9F04753
:1048000006460F4634464FF00109002E4FD0E06CAB
:10481000B84201D23D4600E0E56CE06AA84246D0CD
:10482000206D012843D1D4F82C80E562A06900F006
:10483000004010B9C5F13800A06108EB88011D4A9D
:1048400002EB81016069884201D1012000E0002073
:1048500068B3201DFFF756FE1749E06A09688842D1
:1048600002D91549E06A0860E16A01EB8101114A49
:1048700002EB81014868A0608268E260211D8268C5
:1048800051608160E16A01EB81010A4A02EB810219
:104890006261E16A01EB8101064A52F82110491C6C
:1048A000E26A02EB8202034B43F8221000BFBDE82C
:1048B000F0870000C02B00205C01002070B502468C
:1048C0000B4643F000411160D0681169D2E90154F0
:1048D000AC60D2E901456C604C68944201D19468A7
:1048E0004C60002414610C68641E0C604169D0E9BE
:1048F0000245A560D0E902546560041D4D68A542DB
:1049000001D1C4684C60002545610C68641E0C60D0
:10491000194CC16A2468A14202D9174CC16A2160AE
:10492000C46A04EB8404154D05EB8404616881605E
:104930008D68C560041D8D686C608C60C46A04EB72
:1049400084040E4D05EB84054561C46A04EB8404C0
:104950000A4D55F82440641CC56A05EB8505074ED1
:1049600046F82540064CC16A2468E46AA14202D98F
:104970000121044C216070BD5C010020C02B00208F
:10498000440100206801002010B586B00020059089
:10499000049003AA04A905A8FFF7D6FD0022DDE9CB
:1049A00004101346CDE90021029016A11748039A7E
:1049B00000F05EFC164908600846006808B1012452
:1049C00000E00024012C02D100F048FF0446012C35
:1049D00014D100BF102080F31188BFF34F8FBFF3B5
:1049E0006F8F00BF4FF0FF300A49086001200A496D
:1049F000086000200949086000F032F908480068A2
:104A000006B010BD49444C4500000000C9380008FC
:104A1000780100207401002060010020580100206E
:104A20007C01002002480068401C01490860704772
:104A30008001002070B52648006818B10120254982
:104A4000086043E000202349086023480068046BA5
:104A50004FF0A5352068B0F1A53F0BD16068B0F1EB
:104A6000A53F07D1A068B0F1A53F03D1E068B0F140
:104A7000A53F05D01848016834310068FFF77CFD78
:104A80001648016800E0491E01EB8100144A52F803
:104A9000200008B9012000E000200028F3D101EB3C
:104AA00081020F4B03EB820042685268426000F1C2
:104AB00008024368934202D14268526842604268E9
:104AC000D268054B1A600548016000BF70BD000048
:104AD0008001002068010020440100205C010020CA
:104AE000C02B002010B52020FFF7C8F9044634B1D0
:104AF00000202060201DFFF740FD00202077204689
:104B000010BD2DE9FE4F064689460020019034462F
:104B1000009004F1040B0BF108000290FFF782FFF4
:104B2000DBF80C70206840EA0900206026E0D7F826
:104B300004A03D680020009005F07F4825F07F45E7
:104B400008F0806028B92068284040B1012000901A
:104B500005E020682840A84201D10120009000987B
:104B600058B108F0807010B1019828430190206876
:104B700040F000713846FFF7A1FE57460298874281
:104B8000D5D1206801998843206000F0BBFD2068E2
:104B9000BDE8FE8F2DE9FF5F80460E461746994619
:104BA000DDF838A044464FF0000B00200190FFF7DD
:104BB00039FF206800904A4631460098FFF703F914
:104BC0000390039830B1009DDA46CFB12068B0431E
:104BD000206015E0BAF1000F03D1009D0120019083
:104BE0000EE00FB14BF0807BB9F1000F01D04BF01C
:104BF000806B46EA0B015246201DFFF7D7FD0025CA
:104C000000F080FD0290BAF1000F22D0029838B96E
:104C10004FF0805011490860BFF34F8FBFF36F8F83
:104C2000FFF784FC054605F0007080B9FFF7D0FC63
:104C300025684A4631462846FFF7C5F818B117B12E
:104C40002068B043206001200190FFF7D3FC25F0DD
:104C50007F45284604B0BDE8F09F000004ED00E069
:104C600010B50E48006840F47F000C490860084603
:104C7000006840F07F400860FFF7F2FC0020084920
:104C80000860FBF703FB0748006840F04040054917
:104C90000860FBF7E7FA002010BD000020ED00E0FF
:104CA0004001002034EF00E010B500BF102080F379
:104CB0001188BFF34F8FBFF36F8F00BF00F020FB51
:104CC00018B14FF080500449086000BF002080F305
:104CD000118800BF10BD000004ED00E02DE9F04197
:104CE00004460126002722460021012000F01CF87E
:104CF00005462846FEF7FCFD2846BDE8F0812DE973
:104D0000F84304460D4601274FF000082B460022C9
:104D100011460120009400F030F806463046FEF7B8
:104D2000E7FD3046BDE8F8832DE9F84305460E4619
:104D300017460024F5B1601EB0FBF5F0B04219D360
:104D400005FB06F010F1510F14D805FB06F909F127
:104D50005000FFF793F8044664B1A04608F15008EC
:104D6000002084F846003B464246314628460094DF
:104D7000FEF7CDFD2046BDE8F8832DE9F8438046D7
:104D80000D4616461C46DDF820900027B8F1000FAE
:104D90000FD074B106B165B106B955B927460120E7
:104DA00087F846004B463246294640460097FEF7B4
:104DB000AEFD3846BDE8F8832DE9F04105460E46C4
:104DC00001272C46002C41D0E06B00283ED0B91EB4
:104DD000E06BB1FBF0F0216C884237D3FFF7F8FBB2
:104DE000D4E90F12206801FB0200A0600020A0633C
:104DF00020686060E06B401E226C216800FB02119D
:104E0000E160FF2084F8440084F845009EB92069E1
:104E100008B9012000E00020A8B904F1100000F05A
:104E2000EDFB80B14FF080500A490860BFF34F8F0F
:104E3000BFF36F8F07E004F11000FFF79EFB04F152
:104E40002400FFF79AFBFFF7D5FB00E00027384668
:104E5000BDE8F08104ED00E02DE9FF4383B0074693
:104E600088461D464FF000093C4600BFFFF7B0FBE7
:104E7000A06BE16B884201D3022D28D12A4641461E
:104E80002046FEF778FC0646606A08B9012000E07B
:104E9000002068B904F1240000F0B0FB88B14FF0A5
:104EA000805032490860BFF34F8FBFF36F8F08E027
:104EB0003EB14FF080502D490860BFF34F8FBFF3D4
:104EC0006F8FFFF797FB012007B0BDE8F0830598CF
:104ED00018B9FFF78FFB0020F6E7B9F1000F04D1F6
:104EE00001A8FFF71BFC4FF00109FFF783FBFFF759
:104EF00099FDFFF76DFB94F94400401C10B90020A8
:104F000084F8440094F94500401C10B9002084F84E
:104F10004500FFF76FFB05A901A800F043F9F0B9C0
:104F20002046FEF7EEFDA0B104F110000599FFF751
:104F300007FC2046FEF763FF00F0E4FB002895D154
:104F40004FF0805009490860BFF34F8FBFF36F8F58
:104F50008CE72046FEF753FF00F0D4FB86E720469F
:104F6000FEF74DFF00F0CEFB0020ADE704ED00E0C2
:104F70002DE9F74183B005460F464FF000082C4657
:104F800000BFFFF725FBA66BF6B139462046FEF7BA
:104F9000DDFB701EA063206908B9012000E000203D
:104FA00060B904F1100000F029FB38B14FF08050D7
:104FB0002F490860BFF34F8FBFF36F8FFFF71AFBC6
:104FC000012006B0BDE8F081059818B9FFF712FB83
:104FD0000020F6E7B8F1000F04D101A8FFF79EFB0F
:104FE0004FF00108FFF706FBFFF71CFDFFF7F0FA93
:104FF00094F94400401C10B9002084F8440094F94E
:105000004500401C10B9002084F84500FFF7F2FA73
:1050100005A901A800F0C6F8F0B92046FEF764FD26
:10502000A0B104F124000599FFF78AFB2046FEF7A2
:10503000E6FE00F067FB0028A3D14FF080500C493A
:105040000860BFF34F8FBFF36F8F9AE72046FEF7DC
:10505000D6FE00F057FB94E72046FEF7D0FE00F0A6
:1050600051FB2046FEF740FD00288AD00020A8E72B
:1050700004ED00E02DE9F34182B0054600272C46FF
:10508000B84600BFFFF7A4FAA66BFEB1701EA0637E
:10509000206810B9FEF764FFA060206908B90120FC
:1050A00000E0002060B904F1100000F0A7FA38B168
:1050B0004FF080503A490860BFF34F8FBFF36F8FB6
:1050C000FFF798FA012004B0BDE8F081039818B901
:1050D000FFF790FA0020F6E71FB96846FFF71EFBBE
:1050E0000127FFF787FAFFF79DFCFFF771FA94F9A4
:1050F0004400401C10B9002084F8440094F9450095
:10510000401C10B9002084F84500FFF773FA03A98A
:10511000684600F047F840BB2046FEF7E5FCF0B1DA
:10512000206838B9FFF754FAA06800F0FBF9804610
:10513000FFF760FA04F124000399FFF701FB204612
:10514000FEF75DFE00F0DEFA00289BD14FF08050A4
:1051500013490860BFF34F8FBFF36F8F92E720466C
:10516000FEF74DFE00F0CEFA8CE72046FEF747FE34
:1051700000F0C8FA2046FEF7B7FC002882D0B8F14C
:10518000000F0BD0FFF724FA2046FEF747FB064638
:105190003146A068FFF732FBFFF72CFA002092E7B8
:1051A00004ED00E070B506460C46FFF711FA13480F
:1051B00002687068131A2068401C08B9002519E0BD
:1051C0000F4930680968884206D07068904203D859
:1051D0000125002020600DE02068984207D9206852
:1051E000C01A20603046FFF799FA002502E000203F
:1051F00020600125FFF7FEF9284670BD5801002008
:105200006C0100202DE9FF4F85B080468946174686
:10521000DDE912ABB800FEF731FE064676B15C2040
:10522000FEF72CFE04462CB15C212046FBF763FA06
:10523000266304E03046FFF7EDF900E000248CB16E
:10524000002084F85900CDE900ABCDE902403A4690
:1052500049464046089BFEF76FFB2046FEF7B0F933
:10526000012501E04FF0FF35284609B0BDE8F08F79
:105270002DE9F04F85B00746884691469A46DDE90C
:105280000EB6109CCCB1C6B125465C212846FBF772
:1052900032FA2E63022085F85900002004A95346F3
:1052A0004A46CDE900B1CDE9025041463846FEF705
:1052B00043FB2846FEF784F901E00020049004989F
:1052C00005B0BDE8F08F0000014908687047000094
:1052D000440100200549096809B9012005E0044995
:1052E000096809B9022000E0002070476001002031
:1052F0008001002001490868704700005801002023
:105300002DE9F04100275748006800287DD1564814
:105310000068451C544805608DB95448D0F8008099
:1053200053480068514908605148C0F8008051480E
:105330000068401C4F490860FEF7EAFC00BF4E4879
:105340000068854275D300BF48480068006808B906
:10535000012000E0002020B14FF0FF3046490860F6
:1053600066E042480068C068C4686668B54202D218
:10537000414806605CE06069D4E902128A60D4E9C1
:1053800002214A60211D42688A4201D1E1684160E0
:10539000002262610168491E0160A06A98B1A06A9A
:1053A000D4E907128A60D4E907214A6004F11801A0
:1053B00042688A4201D1216A41600022A2620168EA
:1053C000491E016000BF2D49E06A0968884202D980
:1053D0002A49E06A0860E16A01EB8101284A02EB90
:1053E00081014868A0608268E260211D8268516086
:1053F0008160E16A01EB8101214A02EB8102626175
:10540000E16A01EB81011E4A00E022E052F821101E
:10541000491CE26A02EB8202194B43F82210194937
:10542000E06A0968C96A88428ED901278CE700E0E2
:1054300000BF14480068C06A00EB8000104951F8B2
:105440002000012800D901270F48006800B101277A
:1054500004E00E480068401C0C4908603846BDE86E
:10546000F081000080010020580100204801002048
:105470004C0100206C010020740100205C01002020
:10548000C02B00204401002068010020640100209E
:1054900070B505462C460026002D3CD0206D401EE0
:1054A0002065E16CE06A884235D0206D98BB201DF4
:1054B000FFF728F8E06CE062E06AC0F13800A06114
:1054C0001649E06A0968884202D91449E06A08600E
:1054D000E16A01EB8101124A02EB81014868A06098
:1054E0008268E260211D826851608160E16A01EB9F
:1054F00081010B4A02EB81026261E16A01EB8101E9
:10550000074A52F82110491CE26A02EB8202044B5E
:1055100043F822100126304670BD00005C010020D7
:10552000C02B002070B505462C460026002D5CD00F
:105530002F49E06A0968C96A88424FD2A06900F021
:10554000004028B92A480068C06AC0F13800A0614C
:10555000E16A01EB8101274A02EB8101606988421F
:1055600001D1012000E0002088B3201DFEF7CAFF12
:105570001F480068C06AE0621F49E06A0968884203
:1055800002D91D49E06A0860E16A01EB8101194A0C
:1055900002EB81014868A0608268E260211D826898
:1055A00051608160E16A01EB8101124A02EB8102E4
:1055B0006261E16A01EB81010E4A52F82110491C37
:1055C000E26A02EB82020B4B43F8221004E0FFE791
:1055D00007480068C06AE062012606E00449E06C02
:1055E0000968C96A884200D20126304670BD0000B1
:1055F00044010020C02B00205C01002070B5034650
:10560000D868C168886AD1E90745A560D1E907541F
:10561000656001F118044568A54201D10C6A446037
:1056200000258D620468641E04603048006800280C
:105630003CD14869D1E90245A560D1E902546560D1
:105640000C1D4568A54201D1CC68446000254D6120
:105650000468641E0460264CC86A2468A04202D90B
:10566000234CC86A2060CC6A04EB8404214D05EB0E
:105670008404606888608568CD600C1D85686C60F6
:105680008460CC6A04EB84041A4D05EB84054D61FB
:10569000CC6A04EB8404174D55F82440641CCD6A91
:1056A00005EB8505134E46F8254010E0124C606866
:1056B000C86185680D6201F1180485686C608460BA
:1056C0000D4D8D622C462468641C2C6000BF0B4C71
:1056D000C86A2468E46AA04204D901220120084C67
:1056E000206000E00022104670BD00008001002014
:1056F0005C010020C02B0020483000204401002025
:105700006801002070B500240026FEF761FF4A48BA
:105710000068401E484908600846006800287DD19E
:1057200046480068002879D05AE04548C068C468F7
:10573000A06AD4E907128A60D4E907214A6004F11B
:10574000180142688A4201D1216A41600022A262A6
:105750000168491E01606069D4E902128A60D4E9D7
:1057600002214A60211D42688A4201D1E1684160FC
:10577000002262610168491E01603249E06A0968DD
:10578000884202D92F49E06A0860E16A01EB810191
:105790002D4A02EB81014868A0608268E260211D09
:1057A000826851608160E16A01EB8101264A02EB67
:1057B00081026261E16A01EB8101234A52F8211002
:1057C000491CE26A02EB82021F4B43F822101F4978
:1057D000E06A0968C96A884202D301201C4908604E
:1057E0001748006808B9012000E0002000289CD07C
:1057F0000CB1FEF78DFA1748056865B100BFFFF7D9
:105800007FFD10B10120124908606D1E002DF6D1F8
:105810000020104908600E48006800E008E038B138
:10582000012630070C490860BFF34F8FBFF36F8F1D
:10583000FEF7E0FE304670BD8001002054010020DC
:10584000483000205C010020C02B002044010020D3
:10585000680100206401002004ED00E010B586B06E
:105860000024FDF721FF10480068D0B1002005900A
:10587000049003AA04A905A8FEF772FE2822DDE918
:1058800004100023CDE90021029008A10948039AE1
:10589000FFF7EEFC084908600846006800B10124E3
:1058A00000BF204606B010BD8C010020546D722050
:1058B00053766300E53D00089001002010B50029F3
:1058C0000AD00878002807D005487844FBF746FB43
:1058D000002801D0002010BD0248784410BD00000F
:1058E000F60B0000EE0B000081F00041704780F0E5
:1058F0000040704721F00041704720F000407047A1
:1059000021F00042A2F16052B2F5801F01F0004385
:1059100028BFD2F17F6C0BD95FEA001C43EAC202B8
:1059200042EB507018BF704728BF20F0010070474D
:10593000B2F5801FBCBF184670474FEA410C1CF5FA
:10594000001F02D2084600F0D7BC70B500F014FB6F
:1059500000000089FFF7F6BF4FF00040A0F580007F
:105960007047000010B591EA030F48BF83F0004371
:1059700000F16A83841A71EB030C05D2121943EB10
:105980000C03001B61EB0C01DFF824E14FEA11541A
:10599000A4EB135C1EEA430F18BF9EEA445F73D06A
:1059A00023EA0E03DCF1200E21EA045143F48013B4
:1059B00032D322FA0CFE10EB0E0023FA0CFE41EB60
:1059C0000E01CCF1200E03FA0EFE10EB0E0051F189
:1059D0000001B1F5801FCCF1200E32D201EB045151
:1059E00012FA0EF2BDE8104058BF7047401C38BF95
:1059F0005FEA420218BF7047002814BF20F0010080
:105A000041F100014FEA410313F5001F38BF704711
:105A1000A1F1C04100F0FEBA012A43EB0302ACF150
:105A2000200CDCF11F0E32BF4FF0000E23FA0CF3F6
:105A300010EB030041EB0451B4EB115FD0D0A1EBAC
:105A4000045101F5801149085FEA300001EB04516F
:105A50000ED350F1000038BF12FA0EFE08D1BDE897
:105A60001040C9E7401C38BF5FEA4202CAD1C3E711
:105A7000BDE810404FEA410313F5001F38BF7047DF
:105A8000A1F1C04100F0C6BA9EEA445F08D011EA15
:105A90005E0FBDE8104004BF01F0004100207047D8
:105AA000BDE8104070B500F067FA00BF64FBBE3E71
:105AB0000000E0FF491058BFC1F140415B1058BFE2
:105AC000C3F140438B42EFF3008070472DE9C041A2
:105AD00030B4DFF8A0C23CEA111418BF3CEA13143A
